:020000040800F2
:100000000000032061290008F92A0008FD2A0008E1
:10001000012B0008052B0008092B00080000000038
:10002000000000000000000000000000A90400081B
:100030000D2B0008000000006D050008112B0008C2
:10004000A5290008A7290008A9290008AB2900084C
:10005000AD290008AF290008B1290008B32900081C
:10006000212B0008B7290008B9290008BB2900087E
:10007000BD290008BF290008C1290008C3290008BC
:10008000C5290008C7290008C9290008CB2900088C
:10009000CD290008CF290008D1290008D32900085C
:1000A000D5290008D7290008D9290008DB2900082C
:1000B000DD290008DF290008E1290008E3290008FC
:1000C000E5290008E7290008E9290008EB290008CC
:1000D000ED290008EF290008F1290008F32900089C
:1000E000F5290008F7290008F9290008FB2900086C
:1000F000FD290008FF290008012A0008032A00083A
:10010000052A0008072A0008092A00080B2A000807
:100110000D2A00080F2A0008112A0008132A0008D7
:10012000152A0008172A0008192A00081B2A0008A7
:100130001D2A00081F2A0008212A0008232A000877
:10014000252A0008272A0008292A00082B2A000847
:100150002D2A00082F2A0008312A0008332A000817
:10016000352A0008372A0008392A00083B2A0008E7
:100170003D2A00083F2A0008412A0008432A0008B7
:10018000452A0008472A0008492A00084B2A000887
:100190004D2A00084F2A0008512A0008532A000857
:1001A000552A0008572A0008592A000810B5054C9E
:1001B000237833B9044B13B10448AFF30080012313
:1001C000237010BDE40000200000000094CB010863
:1001D00008B5064B1BB106480649AFF30080064838
:1001E000036813B1054B03B1984708BD0000000038
:1001F00094CB0108E8000020E4000020000000008B
:10020000154B002B08BF134B9D46A3F5803A0021E8
:100210008B460F461348144A121A0DF0AEFB0F4BD3
:10022000002B00D098470E4B002B00D098470020A1
:10023000002104000D000D48002802D00C48AFF347
:1002400000800DF05BFB2000290002F02DFB0DF07B
:1002500041FB00BF00000800000003200000000078
:1002600000000000E4000020A03201200000000097
:100270000000000008B500F0F9FF002008BD00BF35
:1002800030B5B0F9084087B0E51C0246842C08BFA1
:100290000025406800240B461168128A009505ADC0
:1002A00001950294039400F093FE01280CBF059879
:1002B000204607B030BD00BF08B500F079FF002030
:1002C00008BD00BF002808BF012008B501F0ACF947
:1002D000002008BD0129084610B54FF0000103D0E9
:1002E000BDE8104000F0DABB032200F0B5FB044685
:1002F00020B100210A460B4600F0E6FB204610BD67
:1003000030B583B000240A460194A0B1EFF305850F
:1003100045B1214601AA00F077FD01280DD0FF204C
:1003200003B030BD29462B4600F0C2FC012808BFAF
:100330002846F4D1F4E78020F2E701980028EFD0B6
:100340004EF60453CEF200034FF080521A6020465E
:10035000E6E700BF10B582B000240194EFF30581F9
:1003600049B1214601AA234600F050FC01280AD0D9
:10037000FF2002B010BD0A460B4600F0A5FB012885
:10038000F6D10020F5E7019B002BFAD04EF604537E
:10039000CEF200034FF080521A602046E9E700BF1A
:1003A00008B501F055FA012803D0BDE8084000F077
:1003B00009B908BD08B501F0EBFA002008BD00BF7F
:1003C00000F1080343604FF0FF32C3600361002374
:1003D00082600360704700BF00230361704700BF65
:1003E00043684B609A688A609A68516099600861B6
:1003F000036801330360704730B40D686B1C18BF8D
:1004000000F1080201D10EE01A4653681C68A542AB
:10041000FAD24B6099608A605160086103680133C9
:10042000036030BC704702695368F2E74268816834
:10043000036991608268416851605A68824204BFD2
:1004400082685A600022026118680138186070479B
:1004500006480068006880F3088862B661B6BFF39A
:100460004F8FBFF36F8F00DF00BF000008ED00E08B
:10047000DFF80C00016841F4700101607047000072
:1004800088ED00E04FF0807300E90A0040F2255348
:10049000C0F6000340F80C3C6FF0020340F8202C3B
:1004A00040F8243C44387047064B19680868B0E8A7
:1004B000F04F80F30988BFF36F8F4FF0000080F397
:1004C00011887047E86500204EF60453CEF2000311
:1004D0004FF080521A60BFF34F8FBFF36F8F70479A
:1004E000EFF311804FF0500181F311887047002025
:1004F00008B5FFF7F5FF0A4A136801331360BFF32D
:100500004F8FBFF36F8F012B00D008BD4EF6045301
:10051000CEF200031B68DB06F7D0FFF7E1FFFEE732
:100520000000002008B5054B1B68013302D0FFF71F
:10053000D7FFFEE7FFF7D4FFFEE700BF0000002073
:1005400080F31188704700BF08B5074B186818B1D1
:100550000138186018B108BDFFF7C2FFFEE7BDE81B
:100560000840FFF7EDBF00BF00000020EFF3098057
:10057000BFF36F8F124B1A681EF0100F08BF20EDEB
:10058000108A20E9F04F10604DF8043D4FF0500004
:1005900080F3118801F07CF84FF0000080F311889F
:1005A00008BC19680868B0E8F04F1EF0100F08BFCB
:1005B000B0EC108A80F30988BFF36F8F704700BFDB
:1005C000E865002008B5FFF78BFF00F08DFE30B125
:1005D0004EF60453CEF200034FF080521A60002012
:1005E000BDE80840FFF7ACBF40F20803C2F20003C9
:1005F00044F6D3521968C1F26202A2FB01314EF2F5
:100600001402CEF200024EF210038909CEF200036A
:100610000139116007221A60704700BF10B54FF40E
:100620006443CEF2000382B01A7825490192FF227A
:100630001A701B7823488DF803309DF803409DF80D
:10064000032004F0500407230C70110603600DD53D
:10065000062300E00B469DF803205200D2B28DF82D
:1006600003209DF80320591E1206F3D4019C4FF479
:100670006441CEF200011B024EF62052CEF200027F
:1006800003F4E063E4B203600C70136843F4700396
:100690001360136843F070431360FFF7A5FF0A4B24
:1006A00000221A60FFF7E4FE4EF63473CEF2000328
:1006B0001A6842F040421A60FFF7CAFEFFF732FFA5
:1006C00000010020040100200000002008B5EFF325
:1006D00005820F2A08D94EF2F033CEF20003D35C24
:1006E0000A4A12789A420ED84EF60C53CEF2000304
:1006F0001A68074B1B6802F4E0629A4200D808BDF2
:10070000FFF7EEFEFEE7FFF7EBFEFEE7000100203D
:100710000401002010B4124A00E01A461368834214
:10072000FBD351685418844209BF406841680918D6
:10073000104600EB010408BF5160A34205D00360DE
:10074000904218BF106010BC7047064C2468A3424A
:10075000F5D05B68C918416013681B680360EFE758
:10076000100100200C0100202DE9F041044600F0AA
:10077000A7FD3C480368002B4ED03B4B1E68264229
:1007800044D1002C42D004F1080359071CBF23F0C8
:1007900007030833002B39D0344FD7F80080434586
:1007A00034D8334A146861688B4206D9216821B174
:1007B00022460C4661688B42F8D801688C4225D0ED
:1007C0002168156811606268D11A083510290AD9A4
:1007D000E018420702D0FFF783FEFEE74160636046
:1007E000FFF798FF626823480168C2EB08038B4259
:1007F00038BF03603B60324300232360626000F037
:1008000011FE6B0705D0FFF76BFEFEE700F00AFE56
:1008100000252846BDE8F081174A55071ED0D11D96
:1008200021F0070102F5C8435B1A0A46D318A3F169
:10083000080121F007010E4F01608B1A00257D6031
:100840003A604D600D6082E80A000A4D074A2B604D
:100850001360054B4FF000461E6090E74FF4C8430D
:10086000E4E700BF0C01002018650020080100200B
:10087000100100201C6500201801002010B504465E
:1008800070B1124A50F8043C12681A4205D050F870
:10089000081C31B1FFF724FEFEE7FFF721FEFEE75B
:1008A00010BD23EA020340F8043C00F009FD084BA8
:1008B00054F8041C1A68A4F1080052181A60FFF7D3
:1008C00029FFBDE8104000F0ADBD00BF1865002055
:1008D0000801002010B4026C03466AB1C468406885
:1008E000A418844228BF1868DC6028BFD860084676
:1008F000D96810BC0DF038B810BC704738B5044644
:10090000FFF7F6FDA36C002B14DD636A93B104F1CD
:10091000240507E0A36C013BA364A36C002B09DD55
:10092000636A3BB1284600F00DFF0028F2D000F0CA
:1009300087FFEFE74FF0FF33A364FFF705FEFFF7F4
:10094000D7FD636C002B14DD236993B104F110050E
:1009500007E0636C013B6364636C002B09DD236972
:100960003BB1284600F0EEFE0028F2D000F068FF10
:10097000EFE74FF0FF336364BDE83840FFF7E4BDB5
:1009800038B51546026C04463AB90568002D2AD0E0
:100990000020A36B0133A36338BD6DB980680CF0F0
:1009A000E3FFA168236C6268CB189342A360EFD386
:1009B00023682846A360ECE7C0680CF0D5FF226CE2
:1009C000E368216852429B188B42E3603EBF636834
:1009D0009A18E260022DDBD1A36B002BD8D0A36B59
:1009E000013BA363D4E7406800F08CFF6560D0E76B
:1009F00070B504460E4658B3FFF77AFDE56B2368E1
:100A0000206CA360691E4FF0FF3205FB003500FB30
:100A100001330021A16365606264E360A26476B97A
:100A200023691BB9FFF790FD012070BD04F1100090
:100A300000F088FE0128F5D1FFF746FDF2E704F14A
:100A40001000FFF7BDFC04F12400FFF7B9FCE9E753
:100A5000FFF746FDFEE700BFF8B505460E46174610
:100A6000C0B15420FFF780FE044698B105FB06F0A4
:100A70000130FFF779FE206048B1E5632664204627
:100A80000121FFF7B5FF84F850702046F8BD2046DD
:100A9000FFF7F4FEFFF724FDFEE700BF10B50C469C
:100AA00058B1884202D2FFF71BFDFEE70021022267
:100AB000FFF7D2FF20B1846310BDFFF711FDFEE701
:100AC000FFF70EFDFEE700BF2DE9F04784B00446B6
:100AD0000F4601921D46002875D0002900F086803F
:100AE000022D53D000F0B4FE00286AD1019E002EE2
:100AF00079D1FFF7FDFCA26BE36B9A424FF000083F
:100B000004F1100A34D3022D32D0DDF80490B9F18B
:100B1000000F64D0002E3FD0FFF716FD00F0D0FB91
:100B2000FFF7E6FC636C013308BFC4F84480A36C94
:100B3000013308BFC4F84880FFF706FD02A801A9E9
:100B400000F052FE002841D1FFF7D2FCA26BE36B0C
:100B50009A4225D0FFF7F8FC2046FFF7CFFE00F0C1
:100B600061FC0126FFF7C4FCA26BE36B9A42CAD278
:100B7000204639462A46FFF703FF636A002B3CD123
:100B8000002840D1FFF7E0FC012025E0E36B012BBA
:100B9000A8D0FFF7A5FCFEE702A800F015FEBBE712
:100BA000FFF7D2FC5046019900F0A4FD2046FFF764
:100BB000A5FE00F037FC0028D3D1FFF785FC012605
:100BC000D0E7002695E7FFF78BFCFEE72046FFF70E
:100BD00095FE00F027FC002004B0BDE8F087FFF789
:100BE000B3FC4846F8E7FFF77BFCFEE7036C002BFD
:100BF0003FF476AFFFF774FCFEE704F1240000F049
:100C0000A1FD0128BED1FFF75FFCBBE72DE9F04154
:100C100004460F4615469846002831D0002936D0A4
:100C2000B8F1020F0FD0FFF751FDFFF759FCA26B8F
:100C3000E36B9342064612D800243046FFF780FC4F
:100C40002046BDE8F081E36B012B02D0FFF748FCA2
:100C5000FEE7FFF73BFDFFF743FCA36B064620468C
:100C600039464246FFF78CFE10B10DB101232B60CF
:100C7000A36C013307D0A36C0133A3640124DCE728
:100C8000FFF72EFCFEE7636A3BB90124D5E7036C4E
:100C9000002BC5D0FFF724FCFEE704F1240000F090
:100CA00051FD0028F1D00124002DC6D02C60C4E7EE
:100CB0002DE9F04784B004460E460192994600287B
:100CC0006ED0002900F0988000F0C2FD20B9019D8F
:100CD0001DB1FFF705FCFEE70025FFF709FCA36B3C
:100CE000002704F1240A6BBBDDF80480B8F1000F83
:100CF0006AD0002D50D0FFF727FC00F0E1FAFFF793
:100D0000F7FB636C013308BF6764A36C013308BF52
:100D1000A764FFF719FC02A801A900F065FD0028EF
:100D200049D1FFF7E5FBA36B1BB3FFF70DFC204692
:100D3000FFF7E4FD00F076FB0125FFF7D9FBA36B7D
:100D4000002BD1D020463146E568FFF7C3FDB9F14D
:100D5000000F3DD1A26B2368013AA26313B900F0E2
:100D60006DFE60602369002B3FD1FFF7EDFB012092
:100D700027E0FFF7E9FB2368ABB10199504600F08B
:100D8000B9FC2046FFF7BAFD00F04CFB0028D3D198
:100D9000FFF79AFB0125D0E702A800F015FDAAE7AE
:100DA000FFF79EFBFEE7FFF7A3FB606800F060FD26
:100DB000FFF7CAFBE1E72046FFF7A0FD00F032FB9A
:100DC000002004B0BDE8F087FFF7BEFB4046F8E71F
:100DD000636AE560002BC8D004F1240000F0B2FC87
:100DE0000028C2D0FFF770FBBFE704F1100000F04D
:100DF000A9FC0128B9D1F5E7036C002B3FF464AFDF
:100E0000FFF76EFBFEE700BFF8B504460E46154639
:100E100068B1F1B1FFF75AFCFFF762FBA36B07461D
:100E200043B91C463846FFF78BFB2046F8BDFFF759
:100E300057FBFEE720463146FFF74CFDA36B013B15
:100E4000A363636C01330AD0636C013363640124D0
:100E5000E8E7036C002BDDD0FFF742FBFEE72369D8
:100E6000002BF4D004F1100000F06CFC0028EED050
:100E7000002DECD001242C60D4E700BF10B504464F
:100E800030B1FFF735FBA46BFFF75EFB204610BDCA
:100E9000FFF726FBFEE700BF10B50E49044600230E
:100EA000A8B101EBC302526894420BD00133082B66
:100EB000F7D1206808B1FFF7E1FC2046BDE81040FB
:100EC000FFF7DCBC034A002142F83310F1E7FFF7DB
:100ED00007FBFEE7ACC500200B682DE9F0030546D3
:100EE0001846002B35D04B685B6801F108074B6052
:100EF000BB4204BF5B684B60D3F80C800020844683
:100F00005B684B609F4204BF7B684B60DE6806F104
:100F100034032E606B60736C2A73AB60F36A2B61D1
:100F2000F36CC5F818C06B61346B2378A52B4FF0B8
:100F3000000307D114F8019F0133B9F1A50FF9D0CF
:100F4000C3F38F03AB8301302035B04501D04B682C
:100F5000D6E7BDE8F0037047074B1A68126822B95C
:100F6000064B4FF0FF321A6070471B68DB68DB6886
:100F70005A68024B1A607047206500200400002068
:100F800010B50E4B0E4A196812684860904204462C
:100F90000BD30C4A106819680431FFF72DFA0A4B7D
:100FA0001A68944238BF1C6010BD084A106819685E
:100FB0000431BDE81040FFF71FBA00BFE86500200C
:100FC0000466002020650020040000200866002040
:100FD0002DE9F84F0A9DDDF830B007468A461646DF
:100FE0009946002800F08780062D02D9FFF778FA8D
:100FF000FEE75420FFF7B8FB0446002800F0978076
:10100000BBF1000F00F08780C0F830B04FEA8608CF
:101010005846A52142460CF0B0FC236B013E03EB81
:10102000860323F0070B0026A3191AF8062083F87D
:1010300034201AF8063001360BB1102EF4D10023FB
:1010400004F1040A84F8433023655046E562E56400
:10105000FFF7C2F904F11800FFF7BEF9C5F1070365
:10106000A36124616462584639464A46FFF70AFA8A
:101070000B9B206003B11C60FFF73AFA404B414FD5
:101080001A6801321A603A68002A3CD0DFF80C91E5
:10109000D9F8003033B93B683B4EDB6A9D4228BF2C
:1010A0003C6000E0384EDFF8F8C0DFF8F8E0DCF82C
:1010B0000030E26ADEF800104FF00108434408FAFD
:1010C00002FB02EB820063644BEA010B06EB80003B
:1010D0005146CCF80030CEF800B0FFF781F9FFF7A9
:1010E00033FAD9F800301BB13B68DB6A9D4205D862
:1010F0004046BDE8F88FFFF7F3F9FEE7FFF7E4F9A4
:101100004046BDE8F88F3C601B681F4E012B12D093
:10111000DFF88890C7E74FEA86084046FFF724FBD0
:10112000206300287FF475AF2046FFF7A7FB4FF040
:10113000FF30BDE8F88F904608EB880006EB800092
:1011400008F10108FFF73CF9B8F1070FF4D1DFF817
:1011500058B0DFF85880DFF844905846FFF730F970
:101160004046FFF72DF90948FFF72AF90848FFF72D
:1011700027F9084BC3F800B0074BC3F8008092E78B
:1011800024660020E865002058650020EC650020FA
:101190002C650020206500200866002024650020C2
:1011A0000C660020286600201066002040650020A4
:1011B00038B50446FFF79CF9002C3FD0251D284682
:1011C000FFF734F938B9E36A204A03EB830152F898
:1011D0002120002A28D0A36A1BB104F11800FFF7D0
:1011E00025F91B482946FFF7FBF81A4B1A4A1968DC
:1011F00010680131013019601060FFF7A5F9174B35
:101200001B68D3B1164B1B689C4207D0FFF770F9DF
:10121000FFF7A2FEBDE83840FFF796B9114B1B68F7
:101220007BB1FFF75DF9FEE70F4A0120116800FA74
:1012300003F321EA03031360CDE738BD084B1C68B4
:10124000BCE7BDE83840FFF73FB900BF5865002054
:101250002C6500200C6600202865002024650020F5
:10126000E8650020E46500202866002030B585B0E0
:101270000024802200940194029403940C480D49A8
:101280002346FFF7A5FE0128054605D008B105B0A5
:1012900030BDFFF725F9FEE7FFF722F9064B1D6089
:1012A000064B1C6005B0BDE83040FFF7B7B900BF82
:1012B0009D1500084CEC0008246500200466002001
:1012C00046F2E453C2F200031A6801321A60704712
:1012D00010B5FFF70DF946F20463C2F200031C6873
:1012E000FFF732F9204610BD2DE9F84F424B1B683D
:1012F000C3B9424B1A6801321A601F680FB3404CE1
:1013000023689F4225D23F4E3F4D4FF0000B2A6885
:10131000D26A02EB820256F82220012A88BF4FF0DF
:10132000010B05E0394B1A6801321A604FF0000BCF
:10133000374A1268002A18BF4FF0010B5846BDE823
:10134000F88F344B1A681268002A48D0FFF7C8F8A3
:10135000FEE72C4E2C4DDFF8C8904FF0000B46F204
:101360002053C2F200031A6812681AB94FF0FF3214
:101370002260CCE746F22053C2F200031A68D2681A
:10138000D2F80C80D8F8041008F1040A8F425046B5
:1013900023D3FFF74BF8D8F8281008F1180009B14B
:1013A000FFF744F8D8F82C10D9F80000012303FA0D
:1013B00001FE01EB81014EEA000306EB810051467C
:1013C000C9F80030FFF70CF82868D8F82C10C26A6A
:1013D000914228BF4FF0010BC1E7216097E70E490A
:1013E00018680C680D4A1C600860136801331360AC
:1013F000FFF7B2FD83E700BFE4650020046600202C
:101400000400002058650020E86500205465002095
:101410002C66002020650020086600200066002061
:10142000286600202DE9F84F304C236813B9FFF7E8
:1014300057F8FEE7FFF75CF82368013B2360236859
:10144000002B3BD12A4B1B68002B37D0DFF8B09024
:10145000284D294FDFF8ACB0CA46012624E0DAF85F
:101460000C30DC6804F1040804F11800FEF7DEFF1C
:101470004046FEF7DBFFE36A396806FA03FE03EB3A
:10148000830046F25853C2F200034EEA010203EB16
:10149000800041463A60FEF7A3FFDBF80030E16AC6
:1014A000DB6A994228BF2E60D9F80030002BD6D1D4
:1014B000124C236843B92C68012C14D00024FFF788
:1014C00043F82046BDE8F88F2368002BF3D00126AF
:1014D000FFF70AFF00B12E602368013B23602368F9
:1014E000002BF5D1E7E7FEF7EFFFE8E7E465002022
:1014F000246600202C660020286600205465002009
:10150000EC650020E86500202DE9F0411D4B1C68CA
:1015100001341C601C4B1B6800258B42064690461C
:101520002BD81A4F07240025013C04EB840106EB5D
:10153000451007EB81010122FFF7CEFC2D18002C8E
:10154000F2D1134B0222196806EB4510FFF7C4FCD9
:10155000104B2D181968022206EB4510FFF7BCFC52
:101560002D1806EB45100C490422FFF7B5FC2D1889
:10157000B8F1000F01D0C8F80040FFF753FF28462C
:10158000BDE8F081E4650020246600205865002055
:1015900020650020086600202C6500202DE9F84F0A
:1015A0001C4E1D4D1D4CDFF87880DFF87890B24658
:1015B00006E02368376801332360FFF733FF4FB934
:1015C0002B68002BF5D1D9F80030012BF8D9FEF7A4
:1015D0007BFFF5E7FEF78CFFDAF80C30D3F80CB0A0
:1015E0000BF10400FEF722FFD8F8003046F2285233
:1015F000C2F20002013BC8F800301368013B1360DF
:10160000FEF7A2FFDBF83000FFF738F95846FFF786
:1016100035F9D5E72C65002028650020E465002019
:10162000246600205865002038B5024618B9BDE888
:101630003840FEF749BF124B1968E9B91968114CD7
:1016400001311960104B1D68206804305519FEF7F0
:10165000EDFE48B922680D4BD16A1A68012000FAE4
:1016600001F122EA01021A602846FFF789FCFFF720
:10167000D9FE0028DBD038BDFEF732FFFEE700BF01
:10168000E4650020E865002004660020286600204C
:1016900008B5134B1B68FBB9124A1360124B1B6849
:1016A000B3FA83F3DBB2C3F11F0303EB83030F49E8
:1016B0009B00CA18CB5863B153685B6802F10801FC
:1016C00053608B4204BF5B685360DA68084B1A6052
:1016D00008BDFEF705FFFEE7024B01221A6008BDB8
:1016E000E46500202C660020286600205865002054
:1016F000E865002038B50D46D0B10F4C216818318F
:10170000FEF77AFE20680430FEF790FE48B92268A2
:101710000A4BD16A1A68012000FA01F122EA01029B
:101720001A60074B18682818BDE83840FFF728BC36
:10173000FEF7D6FEFEE700BFE86500202866002021
:101740000466002070B5C368DC68002C2CD004F15E
:1017500018052846FEF76AFE154B1B68EBB9251DD8
:101760002846FEF763FE134AE36A11681248012611
:1017700006FA03F603EB83030E4300EB83002946CE
:101780001660FEF72DFE0D4BE26A1B68DB6A9A427B
:1017900008D90B4B0120186070BD0A482946FEF796
:1017A0001FFEF0E7002070BDFEF79AFEFEE700BFC7
:1017B000E46500202866002058650020E8650020C8
:1017C0002C660020EC65002008B530B1044B1A6887
:1017D000044B1B6880E80C0008BDFEF781FEFEE7A5
:1017E000006600200466002038B504460D4600B3AC
:1017F000E1B1FEF77DFE104B10491A6823680968B5
:101800008B42636801D09A4203D22968D01A884279
:1018100004D30124FEF798FE204638BD8A1AD31857
:1018200020462B60FFF7D0FF0024F3E7FEF758FEB9
:10183000FEE7FEF755FEFEE7046600200066002086
:1018400046F22C63C2F2000301221A60704700BF07
:10185000054B1B6833B1054B186800280CBF0220EC
:10186000002070470120704724650020E4650020B7
:10187000F8B50446C0B1204DC36A2A68D26A9342C3
:1018800012D282691D4E002AA1BF2A68D26AC2F113
:101890000702826103EB8303426906EB83039A42EA
:1018A00003D02B68DB6AC362F8BD071D3846FEF71C
:1018B000BDFDF8B9E36A03EB830256F82220CAB9EA
:1018C0000F4A0120116800FA03F321EA03031360B1
:1018D0002B681168DB6A012505FA03F503EB830029
:1018E0000D4306EB80003946E3621560BDE8F84021
:1018F000FEF776BD024AEBE7E86500205865002058
:1019000028660020F8B5044648B1036D002B2BD0A3
:10191000C16AC26C013B9142036500D00BB100204B
:10192000F8BD071D3846FEF781FD00BBE26A164D83
:1019300002EB820355F82330E3B1144BE26C1868D4
:10194000E2620126C2F1070106FA02FE02EB820200
:101950004EEA000EA16105EB82003946C3F800E0B3
:10196000FEF73EFD3046F8BDFEF7BAFDFEE7064D38
:10197000064BE3E7054B0120196800FA02F221EA61
:1019800002021A60DAE700BF5865002028660020CE
:10199000F0B5274B87B01A680492054618680026F0
:1019A0002E704001FEF7E0FE044600283DD032468E
:1019B0000499FFF7A9FD04900596059A049B9A42A5
:1019C00038BF1C4F2ED2059A1B4904EB421200234C
:1019D000127B013AD2B2032A98BFBB5C059ADDF8AC
:1019E00014E0059E059804EB4E1E04EB4212DEF84F
:1019F00010E05268CDF800E004EB461604EB40100E
:101A0000B68B01968668284602960CF04BF828465D
:101A10000CF07FF8059B01330593059A049B9A42CD
:101A20000544D0D32046FEF729FF07B0F0BD00BF24
:101A30002466002048EC000854EC0008044B1A68A7
:101A40001AB11A68116D013111651868704700BF2D
:101A5000E86500202DE9F00F4CF2F65282B0C2F298
:101A6000000200924CF2F55140F25422C2F2000101
:101A7000C2F201024CF2EC560023C2F200060192BF
:101A800040F2502A4CF2F2594CF2F8584CF2F05C09
:101A90004CF2EE574CF2F4554CF2FA540B70C2F281
:101AA000010AC2F20009C2F20008C2F2000CC2F23E
:101AB0000007C2F20005C2F200040099019A3380C7
:101AC0004FF0800BCFF6007B01264FF0FF30CAF8B5
:101AD00000B0A9F80030A8F80030ACF800303B8026
:101AE0002E7023700B70138002B0BDE8F00F02F06F
:101AF000B9B800BF70B540F26004C2F20004FF251F
:101B00000646CFF60075204602F08CF8284602F013
:101B10006BF802F003F8E38882B203EB4303002082
:101B200001469BB202F0EAF94FF0FF3002F05CF898
:101B3000284602F067F8E18832460123002002F0CF
:101B400055F94FF0FF3002F05DF88020CFF60070BD
:101B500002F04AF840F25800C2F20000BDE87040BE
:101B600002F060B8F8B540F25804C2F20004FF2554
:101B70000646CFF60075204602F054F8284602F0DB
:101B800033F801F0D5FFE188C1F1FF2101F57F01B4
:101B9000FC31081887B201F0C1FFE388043382B238
:101BA00039469BB2002002F0A9F94FF0FF3002F055
:101BB0001BF8284602F026F801F0BAFFE188411A26
:101BC00089B232460123002002F010F94FF0FF30B5
:101BD00002F018F88020CFF6007002F005F82046D9
:101BE000BDE8F84002F01EB82DE9F843264C274B1B
:101BF000B4F800801B88B8F10F0F2DD843452ED9BB
:101C000008F175081FFA88F8A8F110084CF28D0643
:101C1000DFF87C901FFA88F80024C8F6084675277C
:101C200004EB080386FB0321C918DA17C2EBA111E4
:101C300007FB113101EB411109EB8105D5F880005B
:101C400001F0D2FF201D80B22946013402F03EF996
:101C5000112CE5D1BDE8F8834345D5D9D0E70C4D2B
:101C600008EB481805EB8803D3F8800001F0BCFFAF
:101C70002388181D03EB431180B205EB8101BDE8F9
:101C8000F84302F023B900BFF0C50020F8C50020DA
:101C9000FCC500202DE9F84F814601F0D3FF4A4BE7
:101CA0001B780646002B61D1484A494D117801291D
:101CB00072D0DFF840B1BBF8004001F02FFFB388CD
:101CC000B0FBF3F0844254D3DFF824A12A88BAF899
:101CD00000309A420BD83F4A1178002969D101336C
:101CE0009BB2752BAAF8003008BFAAF80010BBF809
:101CF0000040394F4FF020080CE02A88BBF8003034
:101D000002EB421203EB8202013307F80280ABF8C8
:101D10000030013401F002FFB388B0FBF3F08442DD
:101D2000EBD32B882D4A2A4C126803EB431307EBA5
:101D300083030026C3F88020ABF80060FFF754FF50
:101D40002B8801339BB2752B18BF238034D0B9F197
:101D50000A0F0BD02A88BBF8003002EB421203EBCB
:101D60008202013307F80290ABF800304846BDE824
:101D7000F88FB9F10A0FA7D02A88BBF800301649AE
:101D800002EB421203EB8202013301F80290ABF83E
:101D900000304846BDE8F88F114913700988114A90
:101DA0001148137000882980104A11491380088057
:101DB0007FE7002313709AE7064A26800123AAF8DA
:101DC00000301370C3E700BFF5C50020FAC500203E
:101DD000F0C50020F4C50020FCC500205002012001
:101DE000ECC50020F6C50020EEC5002054020120FD
:101DF000F8C50020F2C5002070B5354D2B78012BB9
:101E00008AB0044603D0022B12D00AB070BD002362
:101E100043608360C36006F079FE022280232A704B
:101E20002C4A2D48CFF6007313600BF033FEECE71D
:101E30004668002E31D1436A5B7B042BE5D904232D
:101E40004AF6C0062B70354606F048FEC3F201265E
:101E5000204602A903AA04ABC0F201156FF07F442B
:101E600003940495029608F04DF8012332201B4993
:101E7000184D0093C022A8230190802405A80BF0E0
:101E800011FECFF6007416482C600BF003FE05A976
:101E900014482C600BF07AFDB7E703232B7006F093
:101EA0001DFEC6F30742330E8DE80C0005A8F2B202
:101EB000C6F3072309490BF0F5FD8023054A0A48BC
:101EC000CFF6007305A913600BF060FD9DE700BF1E
:101ED000560201205002012068EC00088CEC00083A
:101EE000C4EC0008D4EC000898EC000890F83530F9
:101EF000DB0703D5074B01221A707047054A0648D5
:101F0000052111708023054ACFF6007313600BF092
:101F1000C1BD00BF56020120F0EC000850020120B4
:101F200070B590F8353003F01003DBB284B004468E
:101F300073B9124B05221A7008F03AF88023104A40
:101F40001048CFF6007313600BF0A4FD04B070BD11
:101F50000B4A0A4D0C488023CFF60073136001260C
:101F60000BF098FD204601A902AA03AB2E7007F0E2
:101F7000C9FF204608F00CF8E8E700BF5602012030
:101F800050020120F0EC000814ED000808B50446EA
:101F900021460122034805F007FDFA20FEF792F9D9
:101FA000F6E700BFF91D00082DE9F041184E338B0C
:101FB0008846E3B91648B8F8081001F065F80746F6
:101FC00090B9444605466068618901F04DF863891F
:101FD0002468ED18002CF6D1B8F808309D4213D1D2
:101FE0000B48358301F09EF878B2BDE8F0810848CF
:101FF00001F098F8338B002BDCD0054801F092F803
:10200000338B002BF3D1D5E7FE2778B2BDE8F08102
:102010005802012040F68803C2F201034FF45051E8
:10202000C4F2010119604FF4827159604FF40071DC
:1020300000229961184610219A60DA601A615A618B
:10204000D9611A625A629A6204F0BAB8F0B54FF4D4
:102050006053C4F2020389B01A6B42F002021A63A1
:102060001A6B02F002020192019A1A6B42F04002CE
:102070001A631B6B4FF48065C4F2020503F0400342
:102080000124002602931027284603A9029B0397E8
:1020900004940596069402F099FE28463946224695
:1020A00003F0C4F833464FF4C050C1F221030422B8
:1020B00003A9C4F2020003920493059602F086FE7F
:1020C000FFF7A8FF0F2108200A4602F0F9F80820C0
:1020D00002F030F909B0F0BD38B50446062284F8A4
:1020E0002E20012284F83020022284F8312003229D
:1020F000164D84F832200422002384F83320052270
:10210000284684F82F3084F834202B6004F12F0205
:10211000AB6050236A602B73FFF798FF94F835305B
:1021200040F2DC5243F02203A28584F83530284681
:1021300000F07EFE40B1284600F06EFF94F8353086
:1021400043F0100384F8353038BD00BF5802012039
:102150002DE9F843DFF85490804609F12C06134826
:1021600001F038F810B1B9F8281009B9BDE8F883C2
:102170000320024608F024F807460028F6D004465B
:1021800000256068628971190BF0EEFB6389246891
:10219000ED18002CF5D1D8F8103038464146984754
:1021A0000028DCD0384607F0ADFFD8E75802012000
:1021B00038B5114C0546204601F066F8637C03F003
:1021C0001002D2B242B1E38A286803F480639BB262
:1021D00073B107F0FDFE637C03F04003DBB213B183
:1021E0002868FFF7B5FF8020BDE8384001F048B807
:1021F00007F00EFF637CEFE7580201204EF63852DD
:10220000C0F6000208B58262652280F836206E2290
:1022100080F837204DF20542C0F60002426141F6D7
:10222000A972C0F600028261FFF756FF002008BDC8
:1022300010B5044660686421FEF762F80028F9D101
:1022400021460122014805F0AFFBF3E7B121000868
:10225000FEF780B810B590F8353003F01003DBB20C
:1022600004460BB1FFF738FF2046FFF759FE10BDBB
:1022700000B585B004A94FF47A7301F8010D40F65A
:10228000880000930A460123C2F2010004F0BCF862
:102290009DF80F0005B000BD30B585B004AD4FF41A
:1022A000806405F8010DC4F20204082002F050F821
:1022B00010210022204602F0B9FF012000F0DAFCD4
:1022C0004FF47A70009040F68800012329462A4690
:1022D000C2F2010004F098F810210122204602F019
:1022E000A5FF012000F0C6FC082002F023F89DF8AD
:1022F0000F0005B030BD00BF70B5044682B00820A5
:102300000D46164602F024F84FF48060C4F2020035
:102310001021002202F08AFF012000F0ABFCDDB1A9
:10232000002C23D04FF47A730093144821462A4698
:10233000334604F069F84FF4806010210122C4F2A2
:10234000020002F073FF012000F094FC082002B0AC
:10235000BDE8704001F0EEBF002CECD021463246C3
:102360004FF47A73054803F097FFE4E729463246B5
:102370004FF47A73014804F0C9F9DCE788080120BA
:1023800008B578B94FF4806010210122C4F2020030
:1023900002F04CFF012000F06DFC0820BDE8084071
:1023A00001F0C8BF082001F0D3FF4FF48060C4F2F1
:1023B00002001021002202F039FF0120BDE8084090
:1023C00000F058BC2DE9F843224E05463346002262
:1023D000197D183339B101320A2AF9D14FF00009B9
:1023E0004846BDE8F88302EB420206EBC20707F15C
:1023F00010080123184C88F80430B9466168284653
:102400000BF07DFBC8B12468002CF7D104EB44032A
:1024100006EBC30301349F4208D00A2CDED004EB44
:10242000440306EBC30301349F42F6D14FF0000989
:1024300088F804904846BDE8F883A3683B60E368E9
:102440007B60E368F860BB60237C48463B74BDE872
:10245000F88300BFE0080120E06F0108074900236E
:1024600003EB430201EBC2020133904202D00A2B7C
:10247000F6D1704700230375704700BFE0080120C4
:1024800000B583B0042349F6FC4042F20171009389
:10249000C0F6000100224FF4FA73C0F601000BF001
:1024A000FBF903B000BD00BF2DE9F041ADF5067D9D
:1024B000002306AF19464FF4007280463846049355
:1024C0000393ADF814300BF058FA414B41491C68A6
:1024D000414E0134224603A81C600BF0E3FA384653
:1024E0000BF017FB03A938180BF000FB06F1300CBA
:1024F0008646054634460FCC28606960AA60EB60CA
:10250000103564452646F5D12068344E2860C7F161
:1025100033039E4407EB0E0506F1300C34460FCC16
:1025200028606960AA60EB60103564452646F5D1E5
:102530002068A38828600EF13500AB803818FDF7BD
:1025400039FF38460BF0E5FA254E86463D1806F170
:10255000300C34460FCC28606960AA60EB601035FF
:1025600064452646F5D1206823791E4E28600EF179
:1025700035042B713C1906F1300E35460FCD206025
:102580006160A260E360103475452E46F5D103CE3C
:102590003288B378206061602281A37212480BF008
:1025A000B8FA0025024601230F490095404604F081
:1025B000CDFB38460BF0ADFA009502463946404651
:1025C000012304F0C3FB0DF5067DBDE8F08100BFDB
:1025D00030660020049D0108089D01083C9D01080B
:1025E000749D0108AC9D0108C096010870B586B0C5
:1025F00004A9044604F068FB10B994F908303BB113
:10260000204604F0F5FB049805F034F906B070BDDF
:10261000049805A90DF10E0205F03EF9BDF80E3043
:10262000042BEDD9059D2A49284605220BF079FA9D
:102630000028E5D1284627491B220BF072FA0646EE
:102640002548002E30D0284624491E220BF069FA76
:102650000646234846B3284622491D220BF061FA5C
:10266000064600B32846204918220BF05AFA58B300
:1026700028461E4913220BF054FA28B128461C495B
:1026800006220BF04EFAE8B91A48FFF79BFE00232A
:1026900090E8060005460093204604F057FB2846C4
:1026A000FFF7DCFEACE71448FFF78CFE334690E8FA
:1026B000060005460096204604F048FB2846FFF732
:1026C000CDFE9DE70D48E0E72046FFF7EDFE97E7DA
:1026D000E89D0108F09D0108F49D01080C9E010889
:1026E000109E01082C9E01084C9E0108689E01085E
:1026F0007C9E01086C9E0108309E0108849E0108A2
:1027000010B5002182B010200A4604F037FA0446C2
:1027100020B10021502204F073FA08B102B010BDBC
:102720002046FF2104F086FA01A9204604F098FA19
:102730000028F9D10198FFF759FF019804F04EFAEB
:10274000F2E700BF08B5002000F0C8FFFA20FDF74F
:10275000B9FDF8E72DE9F043002093B000F080FFC9
:10276000012000F07DFF01F0DFF80021CDF205012E
:10277000012001F0E7F9012001F030FA3E48DFF8CE
:1027800024913E4F01F04EFAFFF764F93C48FFF701
:10279000B1F93C48FFF7E6F93B4A3C488023CFF6C5
:1027A000007313600DF148080BF074F90020044623
:1027B000014605F041F948F8284D4AF6C002134693
:1027C000C3F20122C0F201130121059240466FF0CD
:1027D0007F4206920793FDF77DFDC9F800002C4863
:1027E000009401902B4807AB05A906AA0290384631
:1027F00007F096FB384607F0C5FB97F8353003F035
:102800001003DBB23846002B32D107F0D1FB224E49
:102810001A48224907F00CFC0FCE0DAD0FC5344607
:102820001F4B54F8042B1F602A60D9F8002019466A
:102830000DA85A60FDF724FDFFF722FE0F48FFF7B1
:1028400055FB0FCC47460FC723680C493B604046F9
:102850001836FDF715FD0FCE0DAC36680FC40DA868
:1028600000212E60FDF70CFD0020FDF725FDFBE7A4
:1028700007F08EFBCBE700BF50000020D8090120F5
:10288000E09E0108F89E010850020120149F0108F3
:10289000FD21000861790008909E0108552200087A
:1028A000D00901203466002070B594B001F0BEFC60
:1028B0004FF46052C4F202024FF4E043116C224D17
:1028C00041F080511164126CC4F2000302F0805296
:1028D0000192019A1A6842F440421A601B6803F49C
:1028E000404302930123089309934FF480030F930D
:1028F000082310934FF4B4730224119308A80723FC
:10290000029A13930E94129402F08EFE02F03AFE95
:102910000F2303934FF4A05300260521069303A829
:102920004FF4805304940793059603F069F80FCD94
:1029300008AC0FC42B68314608A82360FDF7A0FC43
:10294000FDF798FCFEE700BFCC9E0108042800D0EC
:102950007047024B1868FFF77BBC00BF346600204D
:102960000649074A074B9A42BEBF51F8040B42F88A
:10297000040BF8E70448804704480047A0CB01084F
:1029800000000020E4000020C92B0008010200081C
:10299000FEE7FEE7FEE7FEE7FEE7FEE7FEE7FEE70F
:1029A000FEE7FEE7FEE7FEE7FEE7FEE7FEE7FEE7FF
:1029B000FEE7FEE7FEE7FEE7FEE7FEE7FEE7FEE7EF
:1029C000FEE7FEE7FEE7FEE7FEE7FEE7FEE7FEE7DF
:1029D000FEE7FEE7FEE7FEE7FEE7FEE7FEE7FEE7CF
:1029E000FEE7FEE7FEE7FEE7FEE7FEE7FEE7FEE7BF
:1029F000FEE7FEE7FEE7FEE7FEE7FEE7FEE7FEE7AF
:102A0000FEE7FEE7FEE7FEE7FEE7FEE7FEE7FEE79E
:102A1000FEE7FEE7FEE7FEE7FEE7FEE7FEE7FEE78E
:102A2000FEE7FEE7FEE7FEE7FEE7FEE7FEE7FEE77E
:102A3000FEE7FEE7FEE7FEE7FEE7FEE7FEE7FEE76E
:102A4000FEE7FEE7FEE7FEE7FEE7FEE7FEE7FEE75E
:102A5000FEE7FEE7FEE7FEE7FEE700BF704700BFC8
:102A600000B54FF450530268C4F201039A4289B092
:102A700001D009B000BD4FF46053C4F202034FF41B
:102A800080501A6B42F010021A631A6B02F01002A7
:102A90000192019A5A6C42F400525A645B6C03F43E
:102AA00000530293029B64230393022304930023A5
:102AB000059301230693C4F20200052303A907939B
:102AC00002F084F9D5E700BF4FF450530268C4F216
:102AD00001039A4200D070474FF46053C4F20203DE
:102AE0004FF480505A6CC4F2020022F40052642168
:102AF0005A6402F0AFBA00BF704700BFFEE700BFE4
:102B0000FEE700BFFEE700BFFEE700BF704700BF63
:102B100008B501F0A7FBBDE80840FDF741BC00BFC8
:102B2000042002F08BBB00BF0C490B689BB14EF632
:102B30000852CEF20002181812681268A2F500724C
:102B4000904298BF086004D9054B0C221A604FF0E0
:102B5000FF3318467047034B0B60E8E738660020E8
:102B60009C320120A0320120014B16221A60FEE7A0
:102B70009C32012070B5161E0C4606DD8D1914F826
:102B8000010BFFF787F8AC42F9D1304670BD00BFAA
:102B90004FF0FF30704700BF4FF400534B600020F0
:102BA000704700BF012070470020704770B5161EA7
:102BB0000C4606DD8D19AFF3008004F8010BAC4222
:102BC000F9D1304670BD00BF10B44FF46D42CEF263
:102BD00000024FF46053D2F88810C4F2020341F4AB
:102BE0007001C2F888101868002140F001001860D8
:102BF00099601C6843F2100024F08474C2F2004013
:102C000024F480341C605860186820F48020186018
:102C1000D9604FF00063936010BC704700B583B07B
:102C200002AB022203F8040D18461946FFF764FBB5
:102C30009DF8050003B000BD00B583B002228DF8F9
:102C400004008DF8051001A80021FFF755FB03B023
:102C500000BD00BF38B5054601200C46FFF790FBCC
:102C60003A20FFF705FB00202946A2B2BDE8384014
:102C7000FFF742BB82B000230193074B1A68019B08
:102C800002FB00F0984205D9019B01330193019B9F
:102C90008342F9D302B070473C66002010B5044669
:102CA000FF20FFF7F9FA002302202374BDE810404B
:102CB00001F0E6BA38B5037C8B4205460C4605D0D8
:102CC000BF200321FFF7B8FF0CB92C7438BD9F203B
:102CD0002146FFF7B1FFF8E710B50C4682B0C1F30B
:102CE0004111FFF7E7FF04F01F038DF8043001A83E
:102CF0002306014606D40222FFF7FEFA9DF80500DE
:102D000002B010BD0322FFF7F7FA9DF80600F7E7BF
:102D100070B5064601F0AEFA054601E031280CD840
:102D2000EA213046FFF7D8FF044601F0A3FAE20794
:102D3000C5EB0000F2D4012070BD002070BD00BFC3
:102D400030B50C4683B0C1F3411104F01F041546A1
:102D500044F04004FFF7AEFF01A8002102228DF8E5
:102D600004408DF80550FFF7C7FA03B030BD00BF2F
:102D700030B50A4683B0D4210446FFF7E1FF0122B3
:102D8000D2212046FFF7DCFF134B1A680023019382
:102D900002EB4202019B92009A4205D9019B01334A
:102DA0000193019B9342F9D32046FFF7B1FF80B115
:102DB0000022D2212046FFF7C3FFD8212046FFF78B
:102DC0008BFFD92105462046FFF786FF45EA002004
:102DD00080B203B030BD00BF3C66002030B50B466A
:102DE00083B0154604461A46D421FFF7A9FFD62121
:102DF0002046EAB2FFF7A4FF2A0AD7212046FFF7B0
:102E00009FFF0A4B1A680023019302EB4202019BC9
:102E100092009A4205D9019B01330193019B934291
:102E2000F9D32046FFF774FF03B030BD3C660020A5
:102E3000F0B544F24023774FC0F20F0383B004464D
:102E40003B6001F017FA054601F014FA8542FBD009
:102E500000230193019B3E689E4205D9019B0133EB
:102E60000193019BB342F9D301F004FA401B4FF4E4
:102E70007A7505FB00F5B6FBF5F620463E60FFF7D8
:102E80000DFF00212046FFF715FF72212046FFF7B6
:102E900023FF0138C3B20020FD2B01D903B0F0BDE0
:102EA00000255E208021FFF7C7FE08212A46204624
:102EB000A582FFF745FF204609212A46FFF740FF7C
:102EC00020460C21FF22FFF73BFF20460D2119224F
:102ED000FFF736FF20460A21FF22FFF731FF204689
:102EE0000B211922FFF72CFF04212A4620462583B7
:102EF000FFF726FF204605211A22FFF721FF204673
:102F00003821A122FFF71CFF0A2001F0B9F91D2189
:102F10002046FFF7E1FEC107F6D50D222046C0216D
:102F2000FFF70EFF2368A268002B3FD0C221002AC2
:102F300014BF032233222046FFF702FF2046C6219A
:102F40001222FFF7FDFE2046C4211522FFF7F8FEEE
:102F5000CA21EE222046FFF7F3FECB2120460522B0
:102F6000FFF7EEFE216800293DD10A462046FFF713
:102F700035FF204610214FF48072FFF72FFF237B8F
:102F800003F01003DBB2002B3ED13B21BC20FFF746
:102F900053FE217B09B141F080019B20FFF74CFEDD
:102FA0009F200421FFF748FE012077E72046002AF2
:102FB00014BF02223222C221FFF7C2FE2046C321E3
:102FC0004022FFF7BDFE2046C6211222FFF7B8FEC1
:102FD0002046C7210C22FFF7B3FE2046C42112224F
:102FE000FFF7AEFEB4E700214FF480722046FFF7F2
:102FF000F5FE204610210022FFF7F0FE237B03F0B0
:103000001003DBB2002BC0D0122120460A46FFF786
:10301000E5FEBAE73C66002010B543680446E421AB
:103020001A78FFF78DFE63682046E5215A78FFF78E
:1030300087FE63682046E2219A78FFF781FE636885
:103040002046E321DA78FFF77BFE63682046E02123
:103050001A79FFF775FE63685A792046E121BDE8C9
:103060001040FFF76DBE00BF38B5054601200C4685
:10307000FFF786F97A20FFF7FBF828460021224661
:10308000BDE83840FFF738B9F0B583B006460F46C3
:1030900001F0F0F8054601E031283ED81F20FFF787
:1030A000BDFD044601F0E6F804F00804E4B2401B5C
:1030B000002CF1D1042122463046FFF741FE0521C4
:1030C0001A223046FFF73CFE022130462246FFF727
:1030D00037FE07F5D05503211A223046FFF730FEA0
:1030E000ADB241F6F8739D4219DC0621EAB23046D2
:1030F000FFF726FE304607212A0AFFF721FE7A2332
:1031000001A88DF8043001460E2302228DF8053007
:10311000FFF7F2F860B203B0F0BDFD24FAE7FF2438
:10312000F8E700BF70B5038B82B00646002B4FD086
:10313000102383849F208021FFF77EFDBF20802104
:10314000FFF77AFDBC200A21FFF776FD9F200821BA
:10315000FFF772FD01F08EF8054601E031280AD82C
:103160001C20FFF75BFD044601F084F814F00A0F01
:10317000C5EB0000F2D0BF200821FFF75DFD338BC7
:1031800003F5D05304339CB20021E2B23046FFF77E
:10319000D7FD220A30460121FFF7D2FD0DF10700CD
:1031A0000121FFF757FD1C20FFF738FD00F002005A
:1031B000C3B25BB19DF8073003F02003DBB22BB143
:1031C000B38C013B9BB2B384002BB3D10023338378
:1031D00002B070BD70B5392182B00446FFF77CFDA6
:1031E000054610B9284602B070BD20460021227D58
:1031F000FFF7A6FDA28A2046120A0121FFF7A0FDD3
:1032000068460621FFF726FD9DF804509DF8012031
:103210009DF800309DF803009DF8021005F0800530
:1032200043EA02232DB2A38295B141EA0021A1F124
:10323000130080B240F2CD520025904208D80439E4
:10324000A16204F12C0009B2FFF704FDA38A012555
:10325000192601226BB920460C21FFF771FD20468B
:103260000D213246FFF76CFD9E204021FFF7E4FC64
:10327000B8E75E1EB6B2321C18BF0122360AEAE772
:1032800001469B20FFF7D8BC38B580210446BB20FF
:10329000FFF7D2FC1C20FFF7C1FC392100F03B05F1
:1032A0002046FFF719FD08B145F0400505F0100371
:1032B000DBB2657443B111212046FFF759FD13219C
:1032C000E0822046FFF754FDBC203B21BDE838409A
:1032D000FFF7B2BCF02070474FF4A070704700BFFA
:1032E000282000F08DBA00BF292000F089BA00BF65
:1032F00008B500F003FAD320032100F09FFA80B252
:1033000008BD00BF08B500F0F9F9CA2000F078FA4E
:10331000C32000F057FA082000F054FA502000F0C3
:1033200051FACF2000F06CFA002000F04BFAC120D7
:1033300000F048FA302000F045FAED2000F060FA85
:10334000642000F03FFA032000F03CFA122000F065
:1033500039FA812000F036FAE82000F051FA852091
:1033600000F030FA002000F02DFA782000F02AFA60
:10337000CB2000F045FA392000F024FA2C2000F090
:1033800021FA002000F01EFA342000F01BFA02207F
:1033900000F018FAF72000F033FA202000F012FABB
:1033A000EA2000F02DFA002000F00CFA002000F0D6
:1033B00009FAB12000F024FA002000F003FA1B20E3
:1033C00000F000FAB62000F01BFA0A2000F0FAF92B
:1033D000A22000F0F7F9C02000F012FA102000F04F
:1033E000F1F9C12000F00CFA102000F0EBF9C52033
:1033F00000F006FA452000F0E5F9152000F0E2F9AA
:10340000C72000F0FDF9902000F0DCF9362000F034
:10341000F7F9C82000F0D6F9F22000F0F1F9002009
:1034200000F0D0F9B02000F0EBF9C22000F0CAF9AA
:10343000B62000F0E5F90A2000F0C4F9A72000F05A
:10344000C1F9272000F0BEF9042000F0BBF92A20C2
:1034500000F0D6F9002000F0B5F9002000F0B2F934
:10346000002000F0AFF9EF2000F0ACF92B2000F0C5
:10347000C7F9002000F0A6F9002000F0A3F9012010
:1034800000F0A0F93F2000F09DF9F62000F0B8F917
:10349000012000F097F9002000F094F9062000F0D8
:1034A00091F92C2000F0ACF9C82000F005FA262094
:1034B00000F0A6F9012000F085F9E02000F0A0F965
:1034C0000F2000F07FF9292000F07CF9242000F083
:1034D00079F90C2000F076F90E2000F073F909203C
:1034E00000F070F94E2000F06DF9782000F06AF9D4
:1034F0003C2000F067F9092000F064F9132000F087
:1035000061F9052000F05EF9172000F05BF9112049
:1035100000F058F9002000F055F9E12000F070F9B2
:10352000002000F04FF9162000F04CF91B2000F0AD
:1035300049F9042000F046F9112000F043F9072072
:1035400000F040F9312000F03DF9332000F03AF965
:10355000422000F037F9052000F034F90C2000F08B
:1035600031F90A2000F02EF9282000F02BF92F2045
:1035700000F028F90F2000F025F9112000F040F9A3
:10358000C82000F099F9292000F03AF92C20BDE874
:10359000084000F035B900BF10B5244C88B0204673
:1035A00003F0B0F900283FD14FF4A042C4F2010269
:1035B00022601822E2610722E2624FF460534FF466
:1035C0000072A261C4F202034FF48272A0606061D3
:1035D0002061A062E0602062606262605A6C42F426
:1035E00080125A645A6C02F480120192019A1A6B8A
:1035F00042F020021A631B6B03F0200302930223A4
:10360000049305934FF4A0500123C4F20200029AE0
:1036100006934FF46072052303A90392079301F008
:10362000D5FB204602F0CCFD08B010BD406600205E
:1036300000B583B002A9084B21F8020D012207480A
:103640001B6802F029FE20B1044802F011FEFFF7CA
:10365000A3FF03B000BD00BF4C0000204066002067
:1036600070B5044688B0002826D0012816D0194B22
:10367000194E33F8145056F824000395012303A97A
:10368000049305930223069301F0A0FB56F824004F
:103690002946002201F0CAFD08B070BD4FF4605306
:1036A000C4F202031A6B42F040021A631B6B03F070
:1036B00040030293029BDAE74FF46053C4F2020323
:1036C0001A6B42F040021A631B6B03F04003019334
:1036D000019BCCE7589F01084400002040F24402BF
:1036E00049F658730146C2F20002C0F6010352F8CF
:1036F000200033F8111001F09DBD00BFF0B5304B34
:103700001D7889B0002D59D14FF46054C4F20204E1
:1037100001261E70236B43F008032363236B04967A
:1037200003F0080300934FF440600227C4F2020044
:1037300003A9009B05954FF400530393069701F0EE
:1037400045FB236B43F008032363236B049603F0CC
:10375000080301934FF44060C4F2020003A9019BE7
:1037600005954FF480530393069701F02FFB236BCD
:1037700043F004032363236B049603F004034FF424
:10378000006004240293C4F2020003A9029B039484
:103790000595069701F01AFB4FF40060C4F2020091
:1037A00021462A4601F042FD4FF40060C4F20200B7
:1037B0002146324601F03AFDFFF7EEFE09B0F0BDBA
:1037C0009866002038B505464FF400644FF4406019
:1037D0000122C4F20204C4F202004FF4005101F0CD
:1037E00025FD04210022204601F020FD2846FFF798
:1037F0001FFF204604210122BDE8384001F016BD1C
:1038000038B505464FF400644FF440600022C4F21E
:103810000204C4F202004FF4005101F007FD04213C
:103820000022204601F002FD2846FFF701FF204656
:1038300004210122BDE8384001F0F8BC30B505464E
:103840004FF4006083B00C46C4F202000421002251
:1038500001F0ECFC4FF440604FF400510022C4F240
:10386000020001F0E3FC2846FFF7E2FE104B11488E
:103870001B6801A9224602F049FF20B10D4802F061
:10388000F7FCFFF789FE4FF440600122C4F202000A
:103890004FF40051019C01F0C9FC4FF40060C4F2E8
:1038A00002000421012201F0C1FC204603B030BD1A
:1038B0004C0000204066002000F0E2BC2DE9F04FF3
:1038C00083B0184C0C9DDDF834A0E5604FF4304512
:1038D0000746C4F202059B4600264FF440332046BB
:1038E000894690466360A660256001F045F910B1F5
:1038F00003B0BDE8F08F2046394601F0F5F9002805
:10390000F6D1CDF800B0204651464A46434601F074
:1039100061F90028ECD120460A2103B0BDE8F04F40
:1039200001F078B9B86600202DE9F04346F228741A
:10393000C2F200044FF4D042C4F20102226001221C
:10394000A2611D22E261F03262623632A26246F268
:10395000F86340F21712C2F20003E26230322263CF
:1039600008221A60C0221A6104228DB000254FF08F
:1039700009084FF003099A6118464FF400325A6261
:10398000C4F81480C4F8209084F8365084F8345079
:1039900084F8355002F0C8F94FF46053C4F20203C2
:1039A0006560A560E56025615A6C42F080625A64EA
:1039B0001A6B42F400021A631A6B02F400020092BE
:1039C000009A1A6B42F001021A631A6B02F00102AC
:1039D0000192019A1A6B42F002021A631A6B02F00A
:1039E00002020292029A1A6B42F004021A631A6BE4
:1039F00002F004020392039A1A6B42F008021A635F
:103A00001A6B02F008020492049A1A6B42F0200228
:103A10001A631A6B02F020020592059A1A6B42F0A3
:103A200040021A631B6B099503F040030693284676
:103A300002234FF4806707A9C4F20207069A08938D
:103A400041F658020A93C4F202000E2307920B9328
:103A500001F0BCF9384607A94FF47063079301F0F1
:103A6000B5F94FF4006007A94FF49863C4F202005F
:103A7000079301F0ABF94FF44060482307A9C4F263
:103A8000020007934FF4C05601F0A0F94FF4A05084
:103A900007A9C4F202064FF48063C4F20200079340
:103AA00001F094F94FF40C63304607A9079301F035
:103AB0008DF9384607A9CDF81C90CDF82C8001F07F
:103AC00085F907A94FF4A0533046079301F07EF91A
:103AD000204601F07BFC40F6142240F20C03C2F2B7
:103AE0000003C2F2010219681360884700F090FADF
:103AF00046F29C62C2F2000246F2A0631268C2F271
:103B0000000302EB420203EB820340F25002C2F2D6
:103B100000029A6028460DB0BDE8F08308B540F673
:103B20001423C2F201031B689B6A984708BD00BFBB
:103B300008B540F61423C2F201031B68DB6A9847FC
:103B400008BD00BFF0B540F61425C2F201058FB0E4
:103B50002B68002401949B6A0F46064698472B6801
:103B600003940290DB6A9847FF222B6806924FF479
:103B7000C0628DF834408DF835408DF8364008929B
:103B8000072209920594079404900A979B6A984724
:103B90002B680B90DB6A984746F22874C2F2000447
:103BA0000C9001A93246204601F09EFC06EB460629
:103BB00046F2A063C2F20003B6009A194FF0FF313B
:103BC000516040F25001C2F2000191604FF07F421B
:103BD00020469A5101F0B8FC0FB0F0BD46F29C634C
:103BE000C2F200031860704746F29C62C2F2000203
:103BF00046F2A0631268C2F2000302EB420243F8ED
:103C00002200704746F29C62C2F2000246F2A063B4
:103C10001268C2F2000302EB420203EB8203586017
:103C2000704700BF46F29C62C2F2000246F2A063F7
:103C30001268C2F2000302EB420203EB82039860B7
:103C4000704700BF46F29C62C2F2000246F2A063D7
:103C50001268C2F2000302EB420203EB820398688F
:103C6000704700BF2DE9F04146F29C63C2F20003A9
:103C700040F61424C2F201041D68226846F228733B
:103C80003421C2F2000301FB053382B0926ADF6D7A
:103C9000804690472368DB6A064698470022034621
:103CA0008DE80401284639463246FFF707FE02B088
:103CB000BDE8F0812DE9F04FDFF828B1DBF80030E6
:103CC00046F2A064C2F2000403EB430304EB830357
:103CD0008BB09B6808919E88DD881C680795F31D52
:103CE000DB100693203AC6EBC30305FB02F2D9B200
:103CF000069D079B099005FB0242002B66D0701EB3
:103D000000244018DFF8E0A0049205940390089D79
:103D10000599069A6F18012ABFB25AD0022A5BD0C1
:103D2000049D04996A782D788B78120242EA054541
:103D30001D43002E40D0DDF8249000244FF03408BD
:103D40001DE046F22873C2F2000308FB023246F27D
:103D5000A063C2F20003886A53F82E10D26D02915C
:103D600001928047013407FB00900299019A09F102
:103D70000103B44242F820101FFA83F91CD20399C0
:103D800001230A1B03FA02F22A42DBF80020DAF8C8
:103D9000001002EB420ED4D146F2A063C2F200033F
:103DA00003EB8E0E46F22873C2F20003886ADEF837
:103DB000041008FB0232D1E7059A049B069C079D7C
:103DC00001321B19AA4205920493A0D30BB0BDE89F
:103DD000F08F049B1D78ACE7049C2578637843EA58
:103DE0000525A6E79C660020140A01202DE9F04F66
:103DF00083B016780191144605469B4626B10026ED
:103E00000136A35D002BFBD12D4FDFF8B8903B6846
:103E1000DFF8B4809B6A9847D9F8002002EB420291
:103E200008EB8202BBF1010F93689B88B0FBF3F0B3
:103E30003ED0BBF1020F03D1801B00FB0355ADB296
:103E40000026DFF880B013E014F8012CFFF732FFF2
:103E5000DBF8003046F2A06203EB4303C2F200023B
:103E600002EB830301369B689B88ED18ADB2B6B2B6
:103E70003B6814F801AB9B6A9847D9F80030019968
:103E800003EB430308EB83039B689B8803FB160C3F
:103E90001FFA8CFC9C4534BF00230123BAF1000FAC
:103EA00008BF00232846002BCED103B0BDE8F08F19
:103EB000801B03FB00F305EB5305ADB2C0E700BF69
:103EC000140A01209C660020A066002046F29C6235
:103ED000C2F2000246F2A0631268C2F2000302EBD3
:103EE000420203EB82030A469B68D98800FB01F17A
:103EF00089B200200323FFF779BF00BF2DE9F04FFF
:103F000046F29C64C2F2000440F61425C2F2010598
:103F100027682E6846F2287EC2F2000E4FF0340C5D
:103F20000CFB07E783B0D6F828C0FF6D164689461C
:103F300098468246E0472B689B6A834698472468E8
:103F400046F2A06504EB4403C2F20005801B55F85D
:103F50002320009009FB0BA10192204607EB810171
:103F600032464346FFF7AAFC03B0BDE8F08F00BF1E
:103F70002DE9F04746F2D07446F64C05C2F2000433
:103F800082B0C2F2000501264FF000080827214642
:103F90004FF6FF7282462846CDF8048084E8C000C0
:103FA000A660C4F80C8002F08DF8304600F068F985
:103FB000022321464FF6FF7228464FF0040984E899
:103FC0008800A660C4F80C8002F07CF80323214628
:103FD0004FF6FF72284684E88802C4F80C8002F08D
:103FE00071F84FF40C730193019BC4F800902146C3
:103FF00028464FF6FF726760A660E36002F062F841
:104000002846514602F07AF802B0BDE8F08700BFBA
:104010002DE9F04146F64C0546F63006C2F20005A1
:10402000C2F200060421B160E9601021296140213B
:1040300069614FF4C071A9614FF4A0744FF400613D
:104040004FF46053C4F202030222296200274FF0AA
:1040500001080720CAF200044FF4005132603261B7
:104060007261B2612C607060F060A962C5F8048072
:10407000AF60EF616F62996B41EA08019963996BD8
:104080008EB001EA080101910199196B41F4800198
:104090001963196B01F4800102910299196B1143A4
:1040A0001963196B114003910399196B41F00401D5
:1040B0001963196B01F0040104910499196B41F023
:1040C00008011963196B01F0080105910599196B35
:1040D00041F010011963196B01F010010691069966
:1040E000196B41F020011963196B01F02001079150
:1040F0000799196B41F0400119630EAC1B6B0A92D2
:10410000602144F8141D03F0400308934FF48060CD
:104110002146089B0C920C23C4F202000D930B97CE
:1041200000F054FE4FF400602146C4F20200CDF8C6
:10413000248000F04BFE4FF4406021464CF20373A4
:10414000C4F20200099300F041FE4FF48050214672
:104150004FF68373C4F20200099300F037FE4FF468
:10416000A05021464FF63F03C4F20200099300F02D
:104170002DFE21464FF4C05046F2E074C2F2000416
:1041800048F23313C4F20200099300F01FFE8022AC
:10419000A2604FF40072E2604FF4806222614FF43B
:1041A000805262614FF48042A26146F210434FF4A4
:1041B0000032C4F202032262204603222360A2627C
:1041C0006760E7616762E76227632C63A56300F0BD
:1041D0002DF9204600F0E4F839463A46382000F040
:1041E0006FF8382000F0A6F82846314601F04AFF63
:1041F00040F26A50FFF7BCFE0EB0BDE8F08100BF90
:1042000010B5044601F070FD44F6D353C1F26203C9
:10421000A3FB0020800900F0A9F84FF0FF302146F1
:10422000002200F04DF8002010BD00BF08B54FF48B
:104230007053C4F2020303201A6842F400721A6039
:104240001A6842F480621A601A6842F480721A6036
:1042500000F024F80F20FFF7D3FFFEF7FFFB00204C
:1042600008BD00BF46F68003C2F200031A6801329F
:104270001A60704746F68003C2F200031868704760
:1042800010B582B00190FFF7F5FF0446FFF7F2FF8B
:10429000019B001B9842F9D302B010BD4FF46D434F
:1042A000CEF200034FF6FF02D9680A4042F0BF6227
:1042B00042F4003200F0070042EA0022DA60704760
:1042C00030B44FF46D43CEF20003DC68C4F3022433
:1042D000C4F10703251D042B28BF0423062D1AD97A
:1042E000033C012505FA04F5013D2A40012505FAA4
:1042F00003F3013B194001FA04F4002844EA0204E4
:104300000CDB00F16040240100F56140E4B280F86C
:10431000004330BC704700221446E7E74EF6FC43EA
:1043200000F00F00CEF200032401C318E4B21C76A3
:10433000EFE700BF4FF461434209CEF2000300F003
:104340001F00012101FA00F043F82200704700BF6E
:1043500042094FF4614300F01F00CEF20003203207
:10436000012101FA00F043F8220070470138B0F152
:10437000807F10B412D24EF210034FF46D41CEF292
:104380000003CEF200010022F024586081F823409F
:1043900010469A6007221A6010BC70470120FBE7A4
:1043A0002DE9F00100283FD083684768C668056999
:1043B00044698169C269D0F800801F433E43354398
:1043C0002C4321430A43016A022642EA0103426A5E
:1043D00080F83560D8F80070042A48F23F0C04BF1A
:1043E000C26A016BCFF2100C07EA0C0C08BF0A433B
:1043F00043EA0C0308BF1343C8F800300268436A5D
:104400005169042B21F0070141EA030104BF836ACB
:10441000194300235161C3641A46012380F83530E3
:104420001046BDE8F00170470122F9E7002800F0CE
:10443000908190F83530022B00F08B8103681A6868
:1044400022F001021A6002680023136002685360C0
:10445000026893600268D3600268136103682122D6
:104460005A61036846F25842C4F20202934240F293
:10447000C18046F27042C4F20202934200F005830A
:1044800046F28842C4F20202934208BF4FF480739E
:1044900009D046F2A042C4F20202934214BF4FF088
:1044A00080734FF480234FF4C842C4F20202D360F9
:1044B00046F258420368C4F20202934240F2C880B6
:1044C00046F27042C4F20202934200F0EA8246F2DF
:1044D0008842C4F20202934208BF4FF4006309D03D
:1044E00046F2A042C4F20202934214BF4FF00063AE
:1044F0004FF400134FF4C842C4F20202D36046F2F4
:1045000058420368C4F20202934240F2CF8046F25E
:104510007042C4F20202934200F0C18246F2884225
:10452000C4F20202934208BF4FF4007309D046F26E
:10453000A042C4F20202934214BF4FF000734FF442
:1045400000234FF4C842C4F20202D36046F258423C
:104550000368C4F20202934240F2D68046F27042EF
:10456000C4F20202934200F0948246F28842C4F2FE
:104570000202934200F03F8246F2A042C4F20202DD
:10458000934214BF4FF480034FF480334FF4C8427A
:10459000C4F20202D360036846F25842C4F2020237
:1045A000934200F2788146F2B802C4F202029342CA
:1045B00040F2278246F21042C4F20202934200F017
:1045C000728246F22842C4F20202934208BF4FF4BC
:1045D000806309D046F24042C4F20202934214BF03
:1045E0004FF080634FF480134FF4C842C4F20202CC
:1045F00093606FE146F2B802C4F20202934240F2C5
:10460000AA8046F21042C4F20202934200F04F82A6
:1046100046F22842C4F20202934208BF4FF480736C
:1046200009D046F24042C4F20202934214BF4FF056
:1046300080734FF480234FF4C842C4F202029360A7
:10464000036846F25842C4F2020293423FF638AF82
:1046500046F2B802C4F20202934240F2A38046F24C
:104660001042C4F20202934200F0298246F228422C
:10467000C4F20202934208BF4FF4006309D046F22D
:104680004042C4F20202934214BF4FF000634FF461
:1046900000134FF4C842C4F202029360036846F26A
:1046A0005842C4F2020293423FF631AF46F2B802DA
:1046B000C4F20202934240F29C8046F21042C4F2DD
:1046C0000202934200F0F18146F22842C4F2020253
:1046D000934208BF4FF4007309D046F24042C4F23F
:1046E0000202934214BF4FF000734FF400234FF4C3
:1046F000C842C4F202029360036846F25842C4F210
:10470000020293423FF62AAF46F2B802C4F2020216
:10471000934240F2958046F21042C4F20202934264
:1047200000F0C98146F22842C4F20202934200F02E
:10473000648146F24042C4F20202934214BF4FF435
:1047400080034FF480334FF4C842C4F202029360F6
:1047500099E00120704746F25802C4F202029342E7
:1047600040F2C08046F27002C4F20202934200F0AE
:104770003E8146F28802C4F20202934208BF4FF41F
:10478000807309D046F2A002C4F20202934214BF21
:104790004FF080734FF480234FF4C042C4F2020202
:1047A000D36085E646F25802C4F20202934240F218
:1047B000D68046F27002C4F20202934200F01581E4
:1047C00046F28802C4F20202934208BF4FF400632B
:1047D00009D046F2A002C4F20202934214BF4FF085
:1047E00000634FF400134FF4C042C4F20202D360DE
:1047F00085E646F25802C4F20202934240F2CF80AC
:1048000046F27002C4F20202934200F0EC8046F2DB
:104810008802C4F20202934208BF4FF4007309D029
:1048200046F2A002C4F20202934214BF4FF000739A
:104830004FF400234FF4C042C4F20202D36085E675
:1048400046F25802C4F2020293426BD946F2700259
:10485000C4F20202934200F0C28046F28802C4F21F
:104860000202934200F03D8146F2A002C4F202022D
:10487000934214BF4FF480034FF480334FF4C0428F
:10488000C4F20202D36046F258420368C4F2020244
:1048900093427FF688AE46F27042C4F2020293421F
:1048A00000F0FB8046F28842C4F20202934208BF45
:1048B0004FF4806309D046F2A042C4F20202934250
:1048C00014BF4FF080634FF480134FF4C842C4F21A
:1048D0000202D3600023C36480F8343080F835309E
:1048E0001846704746F21002C4F20202934200F0EA
:1048F000EE8046F22802C4F20202934208BF4FF44F
:10490000807309D046F24002C4F20202934214BFFF
:104910004FF080734FF480234FF4C042C4F2020280
:104920009360C5E546F21002C4F20202934200F021
:10493000D28046F22802C4F2020293425FD046F2CD
:104940004002C4F20202934214BF4FF480034FF4BA
:1049500080334FF4C042C4F20202936093E746F200
:104960001002C4F20202934200F0AD8046F2280227
:10497000C4F20202934208BF4FF4006309D046F22A
:104980004002C4F20202934214BF4FF000634FF49E
:1049900000134FF4C042C4F202029360AFE546F246
:1049A0001002C4F20202934200F08B8046F2280209
:1049B000C4F20202934208BF4FF4007309D046F2DA
:1049C0004002C4F20202934214BF4FF000734FF44E
:1049D00000234FF4C042C4F202029360B6E5012303
:1049E000C0F280034AE7082324E72023FBE60423E0
:1049F000C0F28003D0E64023C8E54023A3E640236D
:104A0000A7E746F25802C4F2020293421ED946F2C8
:104A10007002C4F20202934261D046F28802C4F2EC
:104A20000202934208BF4FF4806309D046F2A0020D
:104A3000C4F20202934214BF4FF080634FF480131C
:104A40004FF4C042C4F20202D36043E746F21002C0
:104A5000C4F20202934238D046F22802C4F20202A3
:104A6000934208BF4FF4806309D046F24002C4F27B
:104A70000202934214BF4FF080634FF480134FF44F
:104A8000C042C4F20202936024E70423C0F2800310
:104A900009E50123C0F2800378E5102315E7082318
:104AA0004FE5202326E510239EE508231FE6042377
:104AB000C0F28003BFE50123C0F2800343E6202358
:104AC000E7E5082385E7202363E71023D7E70423DE
:104AD000C0F2800320E70123C0F2800339E71023EE
:104AE000AEE74023CAE600BF30B4029D046845EA41
:104AF000034363640368DA634368B3F5403F03D05C
:104B00000368D96030BC7047836801F07F4501F4C9
:104B10007F0401F47F42C9B2ABB1012B04BF224331
:104B200011430DD0022B12D0032B18D0240D120BE1
:104B3000240244EA021242EA11112D0F41EA053122
:104B400003689963DEE72C4322431143F8E7E40C42
:104B5000920AE40244EA421242EAD101F0E7E40C8C
:104B6000D20AA40244EA421242EAD101ED0F41EA1C
:104B7000C531E5E7704700BF10B5044640B390F873
:104B8000393003B323686268022184F83910196848
:104B900021F440310A431A602368A268596B21F05E
:104BA00007010A435A632268E168106C20F47F50C1
:104BB00020F03F000023014311641846E363012302
:104BC00084F8393010BD80F83830FFF7D3FFD9E7CB
:104BD000012010BD70B590F83850012D82B0044608
:104BE00002D1022002B070BD0126056880F838604D
:104BF000022680F839602E6826F001062E60069D98
:104C00000095FFF771FF23681A6842F001021A60ED
:104C10000020E7E7F8B503681A680646D0070C4697
:104C20000FD4DA6992062AD402229A6032681021DF
:104C3000916000230122184686F8392086F8383022
:104C4000F8BDFFF717FB0746336801E0611C2AD166
:104C50005A6812F00202E4D159685D6801F020013F
:104C600005F001052943F1D0202199603368012026
:104C70009860042386F8393086F83820F8BDFFF7AD
:104C8000F9FA0546336801E0611C1DD15A68D20665
:104C9000CAD45A681007F7D508229A600423012065
:104CA00086F83930F8BD24B1FFF7E4FAC01B84421E
:104CB000CAD2F36B43F02003F3630320002386F88A
:104CC000383086F83900F8BD24B1FFF7D3FA401B1D
:104CD0008442D7D2F26B032342F02002F2631846DB
:104CE00086F83930F8BD00BFF0B490F83830012BA9
:104CF00069D00A010124183280F838408318022450
:104D000080F839405D680468002932D0E7694FF6C1
:104D1000F071C0F2FC01A5F1090639409F68012E2F
:104D2000DE6841EA074141EA05059ABF06F07F4681
:104D3000354345EA0665E561016884580A6922F44D
:104D40007F5222F03F0222430A6159680939012942
:104D50009FBFD968036821F07F410A4398BF1A6258
:104D60000023012280F8392080F838301846F0BC42
:104D70007047676A4FF6F071C0F2FC01A5F10906B1
:104D800039409F68012EDE6841EA074141EA050586
:104D90009ABF06F07F46354345EA066565620168BD
:104DA00084588A6922F47F5222F03F0222438A61AA
:104DB000596809390129D3D8D968036821F07F419E
:104DC0000A439A62CCE70220D1E700BF2DE9F00F39
:104DD0004FF400628CB04FF48065C4F20205C4F257
:104DE0000202029503924FF440654FF48052C4F2E0
:104DF0000205C4F20202049505924FF4A0554FF447
:104E0000C0524FF46056C4F20205C4F202023746A3
:104E1000069507924FF4E0554FF400524FF0000C06
:104E20004FF47054C4F20107C4F20205C4F2020246
:104E30006346C4F20206C4F2020CC4F201040895EF
:104E40000992019703E00133102B00F0E98001255E
:104E50000A6805FA03F52A40AA42F4D14D6825F004
:104E60001008B8F1020F17D14FEAD30808F108086B
:104E700003F007090D6950F828704FEA89094FF0CF
:104E80000F0B0BFA09FB27EA0B0A05FA09F94AEAA4
:104E9000090540F828504D684FEA43084FF00309D0
:104EA000D0F800A009FA08F96FEA090905F003052E
:104EB00009EA0A0A05FA08F545EA0A0505604D6897
:104EC00005F1FF3A112D18BFBAF1010F40F2AC8085
:104ED000122D00F0A980C5688F6809EA050907FA54
:104EE00008F549EA0505C5604D6815F0805FAAD050
:104EF000756C45F480457564D6F84480019F9D0823
:104F000008F480480235CDF82C8003F00308DDF862
:104F10002C9057F825A04FEA88084FF00F0909FA9E
:104F200008F960452AEA090908BF4FF0000A4BD08A
:104F3000029FB84204BF4FF0010A0AFA08FA43D0B0
:104F4000039FB84204BF4FF0020A0AFA08FA3BD0A6
:104F5000049FB84204BF4FF0030A0AFA08FA33D09C
:104F6000059FB84204BF4FF0040A0AFA08FA2BD092
:104F7000069FB84204BF4FF0050A0AFA08FA23D088
:104F8000079FB84204BF4FF0060A0AFA08FA1BD07E
:104F9000089FB84204BF4FF0070A0AFA08FA13D074
:104FA000099FB84204BF4FF0080A0AFA08FA0BD06A
:104FB0004FF4105AC4F2020A50450CBF4FF0090AD0
:104FC0004FF00A0A0AFA08FA019F4AEA090A47F862
:104FD00025A025684F686FEA020808EA0505FF0367
:104FE00048BF1543256065684F6808EA0505BF039B
:104FF00048BF15436560A5684F6808EA0505FF02CC
:1050000048BF1543A560E5684F6808EA050517F431
:10501000001F18BF15430133102BE5607FF417AF55
:105020000CB0BDE8F00F70478568CF6809EA050548
:1050300007FA08FA45EA0A0585604F684568C7F32C
:10504000001A25EA02050AFA03FA45EA0A0545604C
:1050500041E700BF2DE9F00F4FF440628AB04FF4F2
:1050600080644FF4006BC4F20204C4F2020BC4F279
:1050700002020094CDF808B003924FF480544FF42C
:10508000A05B4FF4C052C4F20204C4F2020BC4F29B
:1050900002024FF000080494CDF814B006924FF4C9
:1050A000E0544FF4005B4FF410524FF460594FF44A
:1050B000705C4346C4F20204C4F20208C4F2020B5C
:1050C000C4F20202C4F20109C4F2010C0794CDF843
:1050D00020B00992CDF8048003E00133102B00F0DA
:1050E0008280012404FA03F505EA0102AA42F4D100
:1050F0004FF0030803FA04F5066808FA05F5ED43D6
:1051000023FA08F708372E40066003F0070B50F823
:1051100027A00F264FEA8B0B06FA0BFB2AEA0B0A95
:1051200040F827A08768DDF804B02F408760476803
:10513000D24317404760D0F80CA09F0805EA0A0543
:105140000237C56003EA0805AD0059F827A006FA42
:1051500005F6584506EA0A0A4DD0DDF800B0584574
:1051600046D0029CA04248D0DDF80CB0584508BF9C
:1051700008FA05F517D0049CA04242D0DDF814B01F
:10518000584542D0069CA04243D0DDF81CB058459B
:1051900043D0089CA04244D0DDF824B0584526D026
:1051A0000A2404FA05F5AA4597D159F8274024EABC
:1051B000060649F82760DCF800401440CCF80040AF
:1051C000DCF804401440CCF80440DCF808401440FB
:1051D000CCF80840DCF80C4001332240102BCCF80E
:1051E0000C207FF47EAF0AB0BDE8F00F70470924B1
:1051F00004FA05F5D7E70025D5E7022404FA05F5FA
:10520000D1E7042404FA05F5CDE7052404FA05F5F1
:10521000C9E7062404FA05F5C5E7072404FA05F5ED
:10522000C1E7082404FA05F5BDE700BF02B9090487
:1052300081617047436959404161704708B54FF437
:105240007053C4F201035969084202D05861FDF756
:105250007DFB08BDF0B404684F68E568D20104F135
:1052600084039B18C5F30B455C6804F470445C60D0
:1052700003680C68DE680134C6F30B468433ED190D
:105280009B18A41944EA05445C600568CF68EC6883
:105290008435AD186405AB6803F47043AB600568F2
:1052A0008E68EB685B050136640D84355B0DE4198F
:1052B000AD18F31843EA0443AB60036884339B18CA
:1052C00000241D6925F007051D6105680B698435FB
:1052D000AD182B61036891F8326091F83170D1F804
:1052E00018C084339B189D699C61036891F8305005
:1052F000843345EA0C659B1845EA072545EA0645CF
:105300009D61036884339B185D6925F0FF055D612D
:1053100005684B698435AD186B61036884339B184D
:10532000DD6925F4E06525F00705DD6106680D6A95
:10533000CB698436B6182B43F361036884339B181A
:105340009D6A9C6204684B6A8434A418A3620B694A
:1053500004245BB10324012B08D0042B18BF022BBB
:1053600030D0032B2ED00124072B2BD0036884339D
:105370009B18DD6A05F0E025DD6291E8C000056854
:105380008B6ABE1B06FB04F6843503FB04F3AD18E1
:10539000033646EA0343EB62036884339B181C6BB5
:1053A00024F4FF6424F007041C630368C96A84338F
:1053B0009B18196303688433995841F0010199508F
:1053C000F0BC70470224D1E7704700BF70B50446B7
:1053D000002800F0868090F8A130002B7CD0236854
:1053E000022284F8A1209A6922F070429A6194E81E
:1053F000280004F1080007C89E693543284301438B
:105400000A439A6122684FF478439168CFF200030F
:105410000B4093602368A16998686269014341EA7F
:1054200002429A6022684FF47843D168CFF20003B9
:105430000B40D3602368216AD868E269014341EADE
:105440000242DA6022684FF478431169CFF2000318
:105450000B4013612368A16A1869626A014341EA3B
:1054600002421A6122684FF478435169CFF2000377
:105470000B4053612368216B5869E26A014341EA9A
:1054800002425A61236894F83500DA6A94F83610BB
:1054900002F07F42DA62236894F83450DA6A2A43D1
:1054A00042EA002242EA0142DA6223685A6B42F081
:1054B00004025A6323685A6B42F002025A6322685C
:1054C0009169002341F0010191611846C4F8A430AC
:1054D000012384F8A13070BD80F8A030FFF774FF7D
:1054E0007DE7012070BD00BF2DE9F04190F8A030AC
:1054F000012B06468C46174602D10220BDE8F081FA
:105500004FF00108022380F8A08080F8A1300D46FA
:105510000FCD342404FB076438340FC40FCD0FC4FF
:105520000FCD0FC42B68304623603A466146FFF723
:1055300091FE32680023C2F82480184686F8A180C4
:1055400086F8A030BDE8F08110B490F8A0200346A2
:105550000220012A13D04FF4D0420124C4F20102E8
:10556000022183F8A11083F8A0409069002140F443
:1055700080309061084683F8A14083F8A01010BCE9
:10558000704700BF30B54FF46053C4F2020383B0DC
:105590001A6C42F080521A641B6C03F08053019322
:1055A000019B4FF4803393FAA3F3B3FA83F3DBB296
:1055B0009B0003F1844303F5602301221A60FEF788
:1055C00059FE4FF4E0440546C4F2000405E0FEF73E
:1055D00051FE401BB0F57A7F23D86368DA03F6D515
:1055E0004FF4003393FAA3F3B3FA83F3DBB29B00D7
:1055F00003F1844303F5602301221A60FEF73AFEAB
:105600004FF4E0440546C4F2000405E0FEF732FE24
:10561000401BB0F57A7F04D863689B03F6D5002061
:1056200000E0032003B030BDF0B503680446D8079E
:1056300083B046D54FF46052C4F20202916801F083
:105640000C01042900F02B81916801F00C0108295C
:1056500000F0218143F60203C4F2020300221A7013
:10566000FEF708FE4FF460550746C4F2020541F20A
:10567000883605E0FEF7FEFDC01BB04200F208814F
:105680002B689B03F6D443F60203C4F2020322798B
:105690001A7063684FF46055002B00F04081FEF7EC
:1056A000E9FDC4F20205074641F2883605E0FEF73F
:1056B000E1FDC01BB04200F2EB802B689803F6D5E9
:1056C00023689A0749D54FF46053C4F202039A68DD
:1056D00012F00C0F26D09A6802F00C02082A1ED095
:1056E000E368002B00F005810023C4F24723012268
:1056F0001A60FEF7BFFD4FF460550646C4F202057E
:1057000005E0FEF7B7FD801B642800F2C1802A681F
:105710004FF460539207C4F20203F2D50EE05B68C7
:105720005802DDD44FF46053C4F202031B6899079A
:1057300000F1D9804FF46053C4F202031968F820D5
:1057400090FAA0F0B0FA80F02269C0B202FA00F23A
:1057500021F0F8010A431A602368190726D4580774
:1057600041D4A36903B34FF46056C4F20206B26891
:1057700002F00C02082A00F09E80022B4FF060031A
:10578000C4F247234FF000021A6000F0D980FEF700
:1057900071FD3446054604E0FEF76CFD401B6428AD
:1057A00076D823689B01F7D4002072E06369002B50
:1057B00000F083804FF46863C4F2472301221A602B
:1057C000FEF758FD4FF460550646C4F2020504E0AA
:1057D000FEF750FD801B64285AD86B6F9A07F7D5E7
:1057E00023685807BDD54FF46053C4F202034FF449
:1057F000E0451A6C42F080521A641B6CC4F200053A
:1058000003F080530193019B2B6843F480732B605A
:10581000FEF730FD064604E0FEF72CFD801B6428F1
:1058200036D82B68D905F7D543F67003C4F20203C6
:1058300000221A70FEF71EFD4FF460550746C4F2B1
:10584000020541F2883604E0FEF714FDC01BB042A9
:105850001ED82B6F9A07F7D443F67003C4F20203E5
:10586000227A1A70A3684FF46055002B00F0B680BE
:10587000FEF700FDC4F20205074641F288362B6FA1
:105880009B073FF56EAFFEF7F5FCC01BB042F6D9A3
:10589000032003B0F0BD526851027FF5DBAE4FF438
:1058A0006052C4F20202126892037FF50AAF626886
:1058B000002A7FF406AF0120EBE74FF46862C4F2E0
:1058C00047224FF460551360FEF7D4FCC4F2020582
:1058D000064604E0FEF7CEFC801B6428D8D86B6F28
:1058E0009B07F7D47CE7E368012B3FF423AF01204B
:1058F000CFE70022C4F247224FF460551360FEF751
:10590000B9FCC4F20205064604E0FEF7B3FC801BB6
:105910006428BDD82B689807F7D423681DE7FEF7E5
:10592000A9FCC4F20205074641F2883604E0FEF7FE
:10593000A1FCC01BB042ABD82B689903F7D4BFE6DB
:10594000FEF798FC074604E0FEF794FCC01B6428B1
:105950009ED833684FF460559901C4F20205F3D420
:1059600047F6C07C9CFAACFCBCFA8CFC4FF440338C
:1059700093FAA3F3B3FA83F34FF0706292FAA2F2B0
:10598000B2FA82F2A16AD4F820E0E669676AE06AB6
:1059900049085FFA8CF44EEA0606DBB207FA04F413
:1059A0000139344301FA03F1D2B2214300FA02F281
:1059B00060230A43C4F247236A6001221A60FEF79B
:1059C00059FC044605E0FEF755FC001B64283FF631
:1059D0005FAF2B689A01F6D500205AE7FEF74AFC24
:1059E000C4F20205074641F288362B6F98077FF50F
:1059F000B8AEFEF73FFCC01BB042F6D948E700BF87
:105A00002DE9F0414FF47053C4F202030C461A68BA
:105A100002F00F028A42054609D2CAB21A701B6808
:105A200003F00F038B4270D00120BDE8F0810368C2
:105A300098070AD54FF46053C4F20203AA68996824
:105A400021F0F0010A439A602B68D90731D56B68C1
:105A5000012B00F097809A1E012A4FF46052C4F285
:105A60000202126840F2A3809107DDD54FF460571F
:105A7000C4F20207BA6822F003021343BB60FEF7C8
:105A8000F9FB6B68012B064600F09580022B00F0B5
:105A9000A080032B7FD041F28838BB6813F00C0F35
:105AA00007D0FEF7E7FB801B4045F6D90320BDE891
:105AB000F0814FF47053C4F20203E2B21A701B6813
:105AC00003F00F03A342AFD12B685A070AD54FF456
:105AD0006053C4F20203EA68996821F4E0510A4372
